:100000000C9434000C9449000C9449000C94490061
:100010000C9449000C9449000C9449000C9449003C
:100020000C9449000C9449000C9449000C9449002C
:100030000C9449000C9449000C9449000C9449001C
:100040000C9449000C9449000C9449000C9449000C
:100050000C9449000C9449000C9449000C944900FC
:100060000C9449000C94490011241FBECFEFD8E036
:10007000DEBFCDBF13E0A0E0B1E0ECE5FDE002C0E3
:1000800005900D92A832B107D9F70E9456060C943C
:10009000AC060C940000CF93DF931F92CDB7DEB770
:1000A0008983898188234CF48981882F90E0880F87
:1000B000991F982F8BE1892702C08981880F0F90A3
:1000C000DF91CF910895CF93DF9300D01F92CDB7EA
:1000D000DEB79B838A838A819B81FC018585898326
:1000E0008A819B810D962A813B81F9012185FC0142
:1000F00020838A819B8109962A813B81F901258190
:10010000FC0120838A819B8105962A813B81F9012C
:100110002181FC0120838A819B8101962981FC0138
:1001200020838A819B81FC01868589838A819B81CA
:100130000E962A813B81F9012681FC0120838A8168
:100140009B8106962981FC0120838A819B81FC0189
:10015000828589838A819B810A962A813B81F90164
:100160002281FC0120838A819B8102962981FC01E6
:1001700020838A819B81FC01838189838A819B8181
:1001800003962A813B81F9012781FC0120838A8122
:100190009B8107962A813B81F9012385FC012083FD
:1001A0008A819B810B962A813B81F9012785FC017D
:1001B00020838A819B810F962981FC012083000086
:1001C0000F900F900F90DF91CF910895FF920F93B2
:1001D0001F93CF93DF93CDB7DEB76D970FB6F8942B
:1001E000DEBF0FBECDBF998F888F7B8F6A8F5D8FEB
:1001F0004C8F888D998D80569F4F998F888F19824B
:100200001FC08981882F90E02C8D3D8D820F931F18
:100210002981222F30E04A8D5B8D240F351FF90193
:1002200060812981222F30E0488D598D240F351FA0
:10023000F90120812627FC01208389818F5F898332
:1002400089818031F0F2888D998D4097998F888FC0
:100250008C8D9D8D0E94630019821BC08981882F1F
:1002600090E02C8D3D8D820F931F2981222F30E04D
:100270004C8D5D8D240F351FF9012081222F30E038
:1002800020503F4FF9012081FC01208389818F5F3D
:1002900089838981803110F381E08A8396C1198234
:1002A00020C08981882F90E09E01285F3F4F820FF8
:1002B000931F2981222F30E04C8D5D8D240F351F37
:1002C000F90160812981222F30E0488D598D240F5A
:1002D000351FF90120812627FC01208389818F5F4A
:1002E000898389818031E8F219823FC18981882F11
:1002F00090E09E01285F3F4F820F931FFC014081D9
:100300008981882F90E001969E01285F3F4F820FE0
:10031000931FFC01808148278981882F90E00296F5
:100320009E01285F3F4F820F931FFC018081482769
:100330008981882F90E003969E01285F3F4F820FAE
:10034000931FFC01808184278C831B821D8237C010
:1003500099818B81890F8D838D81882F90E02C8DE1
:100360003D8D8901080F191F8D81882F90E09E0116
:10037000285F3F4F820F931FFC0190818C81F92EE3
:10038000F8268D81882F90E09E01285F3F4F820FD5
:10039000931FFC0140818D81882F90E001969E0182
:1003A000285F3F4F820F931FFC01808184270E94AA
:1003B0004B008F25F80180838B818F5F8B838B812E
:1003C000833030F28981882F90E003962C8D3D8D0B
:1003D0008901080F191F8981882F90E003969E01DB
:1003E000285F3F4F820F931FFC0190818C81F92E73
:1003F000F8268981882F90E003969E01285F3F4F61
:10040000820F931FFC0140818981882F90E09E011B
:10041000285F3F4F820F931FFC01808184270E9439
:100420004B008F25F80180838981882F90E09E0101
:10043000285F3F4F820F931FFC0140818981882FE5
:1004400090E002969E01285F3F4F820F931FFC01B0
:10045000808184270E944B000E944B008E838981FB
:10046000882F90E001969E01285F3F4F820F931FD7
:10047000FC0140818981882F90E003969E01285FCE
:100480003F4F820F931FFC01808184270E944B0005
:100490000E944B008F839E818F8189270E944B0091
:1004A0008C838981882F90E02C8D3D8D820F931F46
:1004B0002981222F30E04C8D5D8D240F351FF901ED
:1004C00030814C812E8124272327FC0120838981C0
:1004D000882F90E001962C8D3D8D820F931F2981EE
:1004E000222F30E02F5F3F4F4C8D5D8D240F351F45
:1004F000F90130814C812F8124272327FC0120839F
:100500008981882F90E002962C8D3D8D820F931F5C
:100510002981222F30E02E5F3F4F4C8D5D8D240FBF
:10052000351FF90130814C812E8124272327FC01BE
:1005300020838981882F90E003962C8D3D8D820F3A
:10054000931F2981222F30E02D5F3F4F4C8D5D8D11
:10055000240F351FF90130814C812F812427232757
:10056000FC01208389818C5F89838981803108F433
:10057000BDCE8C8D9D8D0E94630019821BC0898128
:10058000882F90E02C8D3D8D820F931F2981222F83
:1005900030E04C8D5D8D240F351FF9012081222F15
:1005A00030E020503F4FF9012081FC0120838981F8
:1005B0008F5F89838981803110F3888D998D409771
:1005C000998F888F8A818F5F8A838A818A3008F425
:1005D00066CE19821FC08981882F90E02C8D3D8DB9
:1005E000820F931F2981222F30E04C8D5D8D240FC7
:1005F000351FF90160812981222F30E0488D598D06
:10060000240F351FF90120812627FC0120838981D1
:100610008F5F898389818031F0F200006D960FB67B
:10062000F894DEBF0FBECDBFDF91CF911F910F9128
:10063000FF900895CF93DF9300D01F92CDB7DEB720
:100640009B838A838A819B81FC01818189838A8142
:100650009B8101962A813B81F9012581FC01208340
:100660008A819B8105962A813B81F9012185FC01C4
:1006700020838A819B8109962A813B81F901258506
:10068000FC0120838A819B810D962981FC012083B6
:100690008A819B81FC01828189838A819B81029668
:1006A0002A813B81F9012285FC0120838A819B817B
:1006B0000A962981FC0120838A819B81FC01868125
:1006C00089838A819B8106962A813B81F90126854F
:1006D000FC0120838A819B810E962981FC01208365
:1006E0008A819B81FC01878589838A819B810F9602
:1006F0002A813B81F9012385FC0120838A819B812A
:100700000B962A813B81F9012781FC0120838A8194
:100710009B8107962A813B81F9012381FC0120837B
:100720008A819B8103962981FC01208300000F9020
:100730000F900F90DF91CF9108950F931F93CF9358
:10074000DF93CDB7DEB769970FB6F894DEBF0FBE63
:10075000CDBF9D8B8C8B7F8B6E8B598F488F198271
:100760001FC08981882F90E0288D398D280F391F6F
:100770008981882F90E04E895F89840F951FFC0145
:1007800060818C899D89AC014F5F5F4F5D8B4C8B85
:10079000FC0180818627F901808389818F5F8983AD
:1007A00089818031F0F281E08A8350C119821CC0B6
:1007B0008981882F90E09E012C5F3F4F820F931F0D
:1007C0002981222F30E0488D598D240F351FF901E2
:1007D0002081222F30E020503E4FF9012081FC0182
:1007E000208389818F5F89838981803108F3CE01DD
:1007F00004960E941A031982FEC08981882F90E016
:100800009E012C5F3F4F820F931FFC014081898125
:10081000882F90E001969E012C5F3F4F820F931F1F
:10082000FC01808148278981882F90E002969E01F3
:100830002C5F3F4F820F931FFC01808148278981E5
:10084000882F90E003969E012C5F3F4F820F931FED
:10085000FC01808184278B838981882F90E0288DFB
:10086000398D8901080F191F8981882F90E09E0119
:100870002C5F3F4F820F931FFC0140818981882F9D
:1008800090E001969E012C5F3F4F820F931FFC0169
:10089000808184270E944B00482F8981882F90E017
:1008A0009E012C5F3F4F820F931FFC018081942F8C
:1008B00098278B818927F80180838981882F90E090
:1008C0000196288D398D8901080F191F8981882F7C
:1008D00090E001969E012C5F3F4F820F931FFC0119
:1008E00040818981882F90E002969E012C5F3F4FC6
:1008F000820F931FFC01808184270E944B00482FA8
:100900008981882F90E001969E012C5F3F4F820FD6
:10091000931FFC018081942F98278B818927F801F0
:1009200080838981882F90E00296288D398D8901F6
:10093000080F191F8981882F90E002969E012C5F75
:100940003F4F820F931FFC0140818981882F90E0E7
:1009500003969E012C5F3F4F820F931FFC01808105
:1009600084270E944B00482F8981882F90E00296AF
:100970009E012C5F3F4F820F931FFC018081942FBB
:1009800098278B818927F80180838981882F90E0BF
:100990000396288D398D8901080F191F8981882FA9
:1009A00090E003969E012C5F3F4F820F931FFC0146
:1009B00040818981882F90E09E012C5F3F4F820FFC
:1009C000931FFC01808184270E944B00482F89815E
:1009D000882F90E003969E012C5F3F4F820F931F5C
:1009E000FC018081942F98278B818927F8018083CF
:1009F00089818C5F89838981803108F4FECE1982D8
:100A00001FC08C899D899C012F5F3F4F3D8B2C8B94
:100A1000FC0160818981882F90E0288D398D820FBB
:100A2000931F2981222F30E0488D598D240F351FC7
:100A3000F90120812627FC01208389818F5F89832A
:100A400089818031F0F28A818F5F8A838A818A303E
:100A500008F4ACCE19821BC08981882F90E0288DC4
:100A6000398D820F931F2981222F30E0488D598DB7
:100A7000240F351FF9012081222F30E020503E4FF6
:100A8000F9012081FC01208389818F5F898389811D
:100A9000803110F3888D998D0E941A0319821FC02E
:100AA0008C899D899C012F5F3F4F3D8B2C8BFC01D6
:100AB00060818981882F90E0288D398D820F931F66
:100AC0002981222F30E0488D598D240F351FF901DF
:100AD00020812627FC01208389818F5F898389817A
:100AE0008031F0F2000069960FB6F894DEBF0FBEB9
:100AF000CDBFDF91CF911F910F910895CF93DF93D9
:100B0000CDB7DEB72E970FB6F894DEBF0FBECDBFC0
:100B10009C878B877E876D871E821D8215C08D8581
:100B20009E859C012F5F3F4F3E872D872B853C85FF
:100B3000A9014F5F5F4F5C874B87F9012081FC0162
:100B400020838D818F5F8D838D81803140F38D85F2
:100B50009E8504979A8389831D829AC089819A8190
:100B60009C012F5F3F4F3A832983FC018081882FAE
:100B700090E080509E4FFC0180818A8789819A8114
:100B80009C012F5F3F4F3A832983FC018081882F8E
:100B900090E080509E4FFC0180818F8389819A81F3
:100BA0009C012F5F3F4F3A832983FC018081882F6E
:100BB00090E080509E4FFC018081888789819A81D6
:100BC0009C012F5F3F4F3A832983FC018081882F4E
:100BD00090E080509E4FFC01808189872F818D811C
:100BE000882F90E080509D4FFC01808182278F8369
:100BF0008D859E8540979C838B8320C08D859E85A7
:100C00009C012F5F3F4F3E872D872E81222F30E0A2
:100C1000AE01495F5F4F240F351FF90160812B81C1
:100C20003C81A9014F5F5F4F5C834B83F9012081B9
:100C30002627FC0120838E818F5F8E838E818430F6
:100C4000E8F21E821FC08D859E859C012F5F3F4F5D
:100C50003E872D8729813A81A9014F5F5F4F5A83D3
:100C60004983F90160812B813C81A9014F5F5F4F6E
:100C70005C834B83F90120812627FC0120838E8130
:100C80008F5F8E838E818C30F0F28D818F5F8D83AC
:100C90008D818A3008F462CF00002E960FB6F8944A
:100CA000DEBF0FBECDBFDF91CF910895CF93DF930D
:100CB000CDB7DEB7C45FD1090FB6F894DEBF0FBE63
:100CC000CDBF9E012F503F4FF90191838083CE010C
:100CD0008D509F4FFC017183608320E1E8E0F3E0D9
:100CE000CE010196DC0101900D922A95E1F780E199
:100CF000E8E1F3E0DE01519601900D928A95E1F76B
:100D0000CE018F5B9F4FBC01CE0101960E947E05F4
:100D1000AE014F5D5F4F9E012F5E3F4FCE018F5B57
:100D20009F4FB9010E949D03AE014F5D5F4F9E0131
:100D30002F5D3F4FCE018F5B9F4FB9010E94E600B0
:100D400080E090E0CC50DF4F0FB6F894DEBF0FBECE
:0C0D5000CDBFDF91CF910895F894FFCF44
:100D5C0052096AD53036A538BF40A39E81F3D7FB24
:100D6C007CE339829B2FFF87348E4344C4DEE9CB6E
:100D7C00547B9432A6C2233DEE4C950B42FAC34EE3
:100D8C00082EA16628D924B2765BA2496D8BD12599
:100D9C0072F8F66486689816D4A45CCC5D65B6923D
:100DAC006C704850FDEDB9DA5E154657A78D9D84E1
:100DBC0090D8AB008CBCD30AF7E45805B8B3450601
:100DCC00D02C1E8FCA3F0F02C1AFBD0301138A6B1B
:100DDC003A9111414F67DCEA97F2CFCEF0B4E6734B
:100DEC0096AC7422E7AD3585E2F937E81C75DF6EF9
:100DFC0047F11A711D29C5896FB7620EAA18BE1B5F
:100E0C00FC563E4BC6D279209ADBC0FE78CD5AF404
:100E1C001FDDA8338807C731B11210592780EC5F4A
:100E2C0060517FA919B54A0D2DE57A9F93C99CEFA6
:100E3C00A0E03B4DAE2AF5B0C8EBBB3C83539961A7
:100E4C00172B047EBA77D626E169146355210C7DE5
:100E5C00637C777BF26B6FC53001672BFED7AB766B
:100E6C00CA82C97DFA5947F0ADD4A2AF9CA472C016
:100E7C00B7FD9326363FF7CC34A5E5F171D8311583
:100E8C0004C723C31896059A071280E2EB27B275A4
:100E9C0009832C1A1B6E5AA0523BD6B329E32F841C
:100EAC0053D100ED20FCB15B6ACBBE394A4C58CF14
:100EBC00D0EFAAFB434D338545F9027F503C9FA8E8
:100ECC0051A3408F929D38F5BCB6DA2110FFF3D2B6
:100EDC00CD0C13EC5F974417C4A77E3D645D19736A
:100EEC0060814FDC222A908846EEB814DE5E0BDB64
:100EFC00E0323A0A4906245CC2D3AC629195E4799B
:100F0C00E7C8376D8DD54EA96C56F4EA657AAE08F4
:100F1C00BA78252E1CA6B4C6E8DD741F4BBD8B8A8F
:100F2C00703EB5664803F60E613557B986C11D9EF5
:100F3C00E1F8981169D98E949B1E87E9CE5528DF6C
:100F4C008CA1890DBFE6426841992D0FB054BB1698
:100F5C00010204081020408000010203040506076A
:100F6C0008090A0B0C0D0E0F00112233445566773D
:080F7C008899AABBCCDDEEFF51
:00000001FF
