:100000000C942A000C943C000C943C000C94CF04FB
:100010000C943C000C943C000C943C000C943C0070
:100020000C943C000C943C000C948E040C943C000A
:100030000C943C000C943C000C943C000C943C0050
:100040000C943C000C943C000C943C000C943C0040
:100050000C943C0011241FBECFE5D8E0DEBFCDBF1D
:1000600020E0A0E6B0E001C01D92A336B207E1F7A0
:100070000E940E020C94C8060C940000CF93DF93EC
:1000800000D0CDB7DEB789836A8389818830B0F12B
:100090008981803198F58A818823C1F088E390E0D6
:1000A00028E330E0F9012081622F2981222F30E0FE
:1000B000A9014850510921E030E002C0220F331F4E
:1000C0004A95E2F7262BFC01208318C088E390E0D4
:1000D00028E330E0F9012081622F2981222F30E0CE
:1000E000A9014850510921E030E002C0220F331F1E
:1000F0004A95E2F720952623FC01208389818930E7
:1001000068F58A818823A9F08BE390E02BE330E047
:10011000F9012081622F2981422F50E021E030E057
:1001200002C0220F331F4A95E2F7262BFC012083E1
:1001300015C08BE390E02BE330E0F9012081622FC2
:100140002981422F50E021E030E002C0220F331F0E
:100150004A95E2F720952623FC012083898180318E
:10016000B0F18981883198F58A818823C1F085E3CF
:1001700090E025E330E0F9012081622F2981222FD0
:1001800030E0A9014051510921E030E002C0220FC6
:10019000331F4A95E2F7262BFC01208318C085E324
:1001A00090E025E330E0F9012081622F2981222FA0
:1001B00030E0A9014051510921E030E002C0220F96
:1001C000331F4A95E2F720952623FC01208389817D
:1001D0008831B0F18981803298F58A818130C1F40B
:1001E00082E390E022E330E0F9012081622F29814F
:1001F000222F30E0A9014851510921E030E002C02E
:10020000220F331F4A95E2F7262BFC01208318C0EA
:1002100082E390E022E330E0F9012081622F29811E
:10022000222F30E0A9014851510921E030E002C0FD
:10023000220F331F4A95E2F720952623FC012083E5
:1002400000000F900F90DF91CF910895CF93DF932F
:1002500000D0CDB7DEB789836A8389818830B0F159
:100260008981803198F58A818823C1F087E390E005
:1002700027E330E0F9012081622F2981222F30E02D
:10028000A9014850510921E030E002C0220F331F7C
:100290004A95E2F7262BFC01208318C087E390E003
:1002A00027E330E0F9012081622F2981222F30E0FD
:1002B000A9014850510921E030E002C0220F331F4C
:1002C0004A95E2F720952623FC0120838981893015
:1002D00068F58A818823A9F08AE390E02AE330E078
:1002E000F9012081622F2981422F50E021E030E086
:1002F00002C0220F331F4A95E2F7262BFC01208310
:1003000015C08AE390E02AE330E0F9012081622FF2
:100310002981422F50E021E030E002C0220F331F3C
:100320004A95E2F720952623FC01208389818031BC
:10033000B0F18981883198F58A818823C1F084E3FE
:1003400090E024E330E0F9012081622F2981222FFF
:1003500030E0A9014051510921E030E002C0220FF4
:10036000331F4A95E2F7262BFC01208318C084E353
:1003700090E024E330E0F9012081622F2981222FCF
:1003800030E0A9014051510921E030E002C0220FC4
:10039000331F4A95E2F720952623FC0120838981AB
:1003A0008831B0F18981803298F58A818130C1F439
:1003B00081E390E021E330E0F9012081622F29817F
:1003C000222F30E0A9014851510921E030E002C05C
:1003D000220F331F4A95E2F7262BFC01208318C019
:1003E00081E390E021E330E0F9012081622F29814F
:1003F000222F30E0A9014851510921E030E002C02C
:10040000220F331F4A95E2F720952623FC01208313
:1004100000000F900F90DF91CF910895CF93DF935D
:10042000CDB7DEB76C970FB6F894DEBF0FBECDBF69
:100430000E94120380E090E0A0E2B1E489839A83F5
:10044000AB83BC8320E030E04AE753E469817A81E2
:100450008B819C810E945B06DC01CB018B8B9C8B8A
:10046000AD8BBE8B20E030E040E85FE36B897C8998
:100470008D899E890E94FE0488232CF481E090E0FF
:10048000988F8F8B3FC020E03FEF4FE757E46B8999
:100490007C898D899E890E94560618164CF520E0AD
:1004A00030E040E251E469817A818B819C810E9435
:1004B0005B06DC01CB01BC01CD010E947505DC01AE
:1004C000CB01988F8F8B0FC089E190E09A8F898F35
:1004D000898D9A8D0197F1F79A8F898F8F89988DE1
:1004E0000197988F8F8B8F89988D892B69F714C00E
:1004F0006B897C898D899E890E947505DC01CB0101
:10050000988F8F8B8F89988D9C8F8B8F8B8D9C8DE7
:100510000197F1F79C8F8B8F21E048E853E160E071
:1005200070E080E291E40E946F0380E896E9A8E120
:10053000BBE48D839E83AF83B88720E030E04AE739
:1005400053E46D817E818F8198850E945B06DC017A
:10055000CB0189879A87AB87BC8720E030E040E8F1
:100560005FE369857A858B859C850E94FE048823DC
:100570002CF481E090E09E878D873FC020E03FEF24
:100580004FE757E469857A858B859C850E945606DE
:1005900018164CF520E030E040E251E46D817E8198
:1005A0008F8198850E945B06DC01CB01BC01CD01E7
:1005B0000E947505DC01CB019E878D870FC089E104
:1005C00090E0988B8F878F8598890197F1F7988BAA
:1005D0008F878D859E8501979E878D878D859E85CA
:1005E000892B69F714C069857A858B859C850E9463
:1005F0007505DC01CB019E878D878D859E859A8B45
:10060000898B89899A890197F1F79A8B898B80E088
:1006100090E06C960FB6F894DEBF0FBECDBFDF91B1
:10062000CF910895CF93DF93CDB7DEB78DE490E0FF
:10063000FC0110828CE490E0FC01108261E08CE10E
:100640000E94260161E08DE10E94260161E08AE1BD
:100650000E94260161E08BE10E94260161E08EE1AB
:100660000E94260161E08FE10E94260161E08AE19B
:100670000E943E0060E08BE10E943E008FE490E02B
:100680002FE430E0F90120812064FC0120838FE415
:1006900090E02FE430E0F90120812068FC01208304
:1006A0008EE490E02EE430E0F90120812260FC012C
:1006B00020838FE490E02FE430E0F9012081206175
:1006C000FC0120838FE490E02FE430E0F9012081E9
:1006D0002062FC0120830000DF91CF910895CF922A
:1006E000DF92EF92FF92CF93DF93CDB7DEB72997DA
:1006F0000FB6F894DEBF0FBECDBF6B837C838D83B6
:100700009E8358874F8329871A8219828985813071
:1007100009F079C060E08EE10E943E0061E08FE167
:100720000E943E008FE490E02FE430E0F901208148
:100730002260FC0120838EE490E02EE430E0F90199
:1007400020812860FC0120838EE490E02EE430E0DC
:10075000F90120812061FC01208387E490E02F8152
:100760003885232F3327FC01208386E490E02F81F6
:10077000FC01208320E030E048EC52E46B817C8176
:100780008D819E810E940305DC01CB016C017D01FE
:100790008F8198850196CC01A0E0B0E0BC01CD012D
:1007A0000E94A405DC01CB019C01AD01C701B6018B
:1007B0000E945B06DC01CB01BC01CD010E947505E6
:1007C000DC01CB019C018F819885821B930B9A835E
:1007D000898389E490E029813A81232F3327FC0122
:1007E000208388E490E02981FC0120838BE490E061
:1007F00029813A81232F3327FC0120838AE490E06A
:100800002981FC0120838985823009F079C060E06C
:100810008EE10E943E0061E08FE10E943E008FE485
:1008200090E02FE430E0F90120812260FC01208378
:100830008EE490E02EE430E0F9012081277FFC0176
:1008400020838EE490E02EE430E0F90120812061E5
:10085000FC01208387E490E02F813885232F332704
:10086000FC01208386E490E02F81FC01208320E0BE
:1008700030E048EC52E46B817C818D819E810E9446
:100880000305DC01CB016C017D018F819885019608
:10089000CC01A0E0B0E0BC01CD010E94A405DC01C8
:1008A000CB019C01AD01C701B6010E945B06DC01D2
:1008B000CB01BC01CD010E947505DC01CB019C017F
:1008C0008F819885821B930B9A83898389E490E0BA
:1008D00029813A81232F3327FC01208388E490E08B
:1008E0002981FC0120838BE490E029813A81232F28
:1008F0003327FC0120838AE490E02981FC012083D6
:10090000000029960FB6F894DEBF0FBECDBFDF9171
:10091000CF91FF90EF90DF90CF9008951F920F92AC
:1009200000905F000F9211242F933F938F939F931A
:10093000EF93FF93CF93DF93CDB7DEB78091610044
:100940009091620001969093620080936100809183
:10095000610090916200883E934048F010926200DE
:1009600010926100809160008F5F809360008FE53E
:1009700090E02FE530E0F90120812068FC01208320
:100980000000DF91CF91FF91EF919F918F913F9167
:100990002F910F9000925F000F901F9018951F925B
:1009A0000F9200905F000F9211242F933F938F932B
:1009B0009F93EF93FF93CF93DF93CDB7DEB785E09F
:1009C0008093600010926200109261008FE590E0C9
:1009D0002FE530E0F90120812068FC012083000030
:1009E000DF91CF91FF91EF919F918F913F912F9147
:1009F0000F9000925F000F901F9018950E94E105E4
:100A000008F481E008950E9417050C941C060E94CA
:100A1000150658F00E940E0640F029F45F3F29F0B9
:100A20000C94050651110C9450060C940B060E9470
:100A30002D0668F39923B1F3552391F3951B550BBC
:100A4000BB27AA2762177307840738F09F5F5F4FA1
:100A5000220F331F441FAA1FA9F335D00E2E3AF0E0
:100A6000E0E832D091505040E695001CCAF72BD0F8
:100A7000FE2F29D0660F771F881FBB1F2617370749
:100A80004807AB07B0E809F0BB0B802DBF01FF277B
:100A900093585F4F3AF09E3F510578F00C9405064D
:100AA0000C9450065F3FE4F3983ED4F38695779517
:100AB0006795B795F7959F5FC9F7880F911D969534
:100AC000879597F90895E1E0660F771F881FBB1F90
:100AD000621773078407BA0720F0621B730B840B3D
:100AE000BA0BEE1F88F7E09508950E94350688F04E
:100AF0009F5798F0B92F9927B751B0F0E1F0660FE2
:100B0000771F881F991F1AF0BA95C9F714C0B13022
:100B100091F00E944F06B1E008950C944F06672FA4
:100B2000782F8827B85F39F0B93FCCF38695779551
:100B30006795B395D9F73EF490958095709561953A
:100B40007F4F8F4F9F4F0895E89409C097FB3EF465
:100B500090958095709561957F4F8F4F9F4F99230A
:100B6000A9F0F92F96E9BB279395F6958795779588
:100B70006795B795F111F8CFFAF4BB0F11F460FF48
:100B80001BC06F5F7F4F8F4F9F4F16C0882311F0A0
:100B900096E911C0772321F09EE8872F762F05C0B4
:100BA000662371F096E8862F70E060E02AF09A954F
:100BB000660F771F881FDAF7880F9695879597F944
:100BC0000895990F0008550FAA0BE0E8FEEF1616DE
:100BD0001706E807F907C0F012161306E407F50731
:100BE00098F0621B730B840B950B39F40A2661F0A5
:100BF000232B242B252B21F408950A2609F4A14048
:100C0000A6958FEF811D811D089597F99F6780E854
:100C100070E060E008959FEF80EC089500240A944E
:100C20001616170618060906089500240A941216C7
:100C30001306140605060895092E0394000C11F4FA
:100C4000882352F0BB0F40F4BF2B11F460FF04C0A7
:100C50006F5F7F4F8F4F9F4F089557FD9058440F00
:100C6000551F59F05F3F71F04795880F97FB991F0B
:100C700061F09F3F79F087950895121613061406C8
:100C8000551FF2CF4695F1DF08C016161706180655
:100C9000991FF1CF86957105610508940895E89430
:100CA000BB2766277727CB0197F908950E94E105B6
:100CB00008F48FEF08950E946E060C941C060E94A3
:100CC0000E0638F00E94150620F0952311F00C94C2
:100CD00005060C940B0611240C9450060E942D0658
:100CE00070F3959FC1F3950F50E0551F629FF0017F
:100CF000729FBB27F00DB11D639FAA27F00DB11D98
:100D0000AA1F649F6627B00DA11D661F829F222720
:100D1000B00DA11D621F739FB00DA11D621F839FA7
:100D2000A00D611D221F749F3327A00D611D231F7D
:100D3000849F600D211D822F762F6A2F11249F57CB
:100D400050409AF0F1F088234AF0EE0FFF1FBB1FCE
:100D5000661F771F881F91505040A9F79E3F51058D
:100D600080F00C9405060C9450065F3FE4F3983E27
:100D7000D4F3869577956795B795F795E7959F5F37
:100D8000C1F7FE2B880F911D9695879597F90895C9
:040D9000F894FFCF05
:00000001FF
