:100000000C942A000C9447000C9447000C94470071
:100010000C9447000C9447000C9447000C94470044
:100020000C9447000C9447000C9488050C944700EE
:100030000C9447000C9447000C9447000C94470024
:100040000C9447000C9447000C9447000C94470014
:100050000C94470011241FBECFE5D8E0DEBFCDBF12
:1000600010E0A0E6B0E0E2E2FCE002C005900D92F4
:10007000A236B107D9F720E0A2E6B0E001C01D9298
:10008000AE39B207E1F70E9449000C940F060C94B8
:100090000000CF93DF931F92CDB7DEB761E08AE017
:1000A0000E940E0261E08CE00E940E0261E08DE091
:1000B0000E940E0261E08EE00E940E0261E08FE07D
:1000C0000E940E020E940E0342E068EE73E08BE392
:1000D00095E00E942803898343E068E775E08FE498
:1000E00095E00E942803898341E06CE677E083E68F
:1000F00095E00E942803898344E061E070E087E78F
:1001000095E00E94280389830E941A0380E090E012
:100110000F90DF91CF910895CF93DF9300D0CDB7AB
:10012000DEB789836A8389818830B0F18981803123
:1001300098F58A818823C1F088E390E028E330E0D5
:10014000F9012081622F2981222F30E0A901485036
:10015000510921E030E002C0220F331F4A95E2F737
:10016000262BFC01208318C088E390E028E330E0D0
:10017000F9012081622F2981222F30E0A901485006
:10018000510921E030E002C0220F331F4A95E2F707
:1001900020952623FC0120838981893068F58A8196
:1001A0008823A9F08BE390E02BE330E0F901208174
:1001B000622F2981422F50E021E030E002C0220F5F
:1001C000331F4A95E2F7262BFC01208315C08BE3F1
:1001D00090E02BE330E0F9012081622F2981422F4A
:1001E00050E021E030E002C0220F331F4A95E2F7D1
:1001F00020952623FC01208389818031B0F18981FB
:10020000883198F58A818823C1F085E390E025E361
:1002100030E0F9012081622F2981222F30E0A901ED
:100220004051510921E030E002C0220F331F4A95AE
:10023000E2F7262BFC01208318C085E390E025E33C
:1002400030E0F9012081622F2981222F30E0A901BD
:100250004051510921E030E002C0220F331F4A957E
:10026000E2F720952623FC01208389818831B0F1B3
:100270008981803298F58A818130C1F482E390E0EF
:1002800022E330E0F9012081622F2981222F30E022
:10029000A9014851510921E030E002C0220F331F6B
:1002A0004A95E2F7262BFC01208318C082E390E0F8
:1002B00022E330E0F9012081622F2981222F30E0F2
:1002C000A9014851510921E030E002C0220F331F3B
:1002D0004A95E2F720952623FC01208300000F9029
:1002E0000F90DF91CF910895CF93DF931F92CDB7F9
:1002F000DEB7898389818830D8F489E190E0FC01F8
:100300008081282F30E08981482F50E081E090E003
:1003100002C0880F991F4A95E2F78223932329810F
:10032000222F30E002C0959587952A95E2F772C09A
:100330008981883018F18981803100F586E390E069
:10034000FC018081282F30E08981882F90E0AC016A
:100350004850510981E090E002C0880F991F4A95EA
:10036000E2F7822393232981222F30E0285031099C
:1003700002C0959587952A95E2F74CC08981803116
:1003800018F18981883100F583E390E0FC018081D8
:10039000282F30E08981882F90E0AC01405151092D
:1003A00081E090E002C0880F991F4A95E2F782230E
:1003B00093232981222F30E02051310902C09595E5
:1003C00087952A95E2F726C08981883118F18981BD
:1003D000803200F580E390E0FC018081282F30E03E
:1003E0008981882F90E0AC014851510981E090E06B
:1003F00002C0880F991F4A95E2F78223932329812F
:10040000222F30E02851310902C0959587952A9511
:10041000E2F700C00F90DF91CF910895CF93DF9363
:1004200000D0CDB7DEB789836A8389818830B0F187
:100430008981803198F58A818823C1F087E390E033
:1004400027E330E0F9012081622F2981222F30E05B
:10045000A9014850510921E030E002C0220F331FAA
:100460004A95E2F7262BFC01208318C087E390E031
:1004700027E330E0F9012081622F2981222F30E02B
:10048000A9014850510921E030E002C0220F331F7A
:100490004A95E2F720952623FC0120838981893043
:1004A00068F58A818823A9F08AE390E02AE330E0A6
:1004B000F9012081622F2981422F50E021E030E0B4
:1004C00002C0220F331F4A95E2F7262BFC0120833E
:1004D00015C08AE390E02AE330E0F9012081622F21
:1004E0002981422F50E021E030E002C0220F331F6B
:1004F0004A95E2F720952623FC01208389818031EB
:10050000B0F18981883198F58A818823C1F084E32C
:1005100090E024E330E0F9012081622F2981222F2D
:1005200030E0A9014051510921E030E002C0220F22
:10053000331F4A95E2F7262BFC01208318C084E381
:1005400090E024E330E0F9012081622F2981222FFD
:1005500030E0A9014051510921E030E002C0220FF2
:10056000331F4A95E2F720952623FC0120838981D9
:100570008831B0F18981803298F58A818130C1F467
:1005800081E390E021E330E0F9012081622F2981AD
:10059000222F30E0A9014851510921E030E002C08A
:1005A000220F331F4A95E2F7262BFC01208318C047
:1005B00081E390E021E330E0F9012081622F29817D
:1005C000222F30E0A9014851510921E030E002C05A
:1005D000220F331F4A95E2F720952623FC01208342
:1005E00000000F900F90DF91CF910895CF93DF938C
:1005F000CDB7DEB781E0809362000000DF91CF913C
:100600000895CF93DF93CDB7DEB78091620081303C
:10061000E1F7109262000E949703F7CFCF93DF9328
:10062000CDB7DEB786EF92E00E94FC050000DF91B7
:10063000CF910895CF93DF93CDB7DEB70E94180412
:100640000E94B9050E9401030000DF91CF91089537
:10065000CF93DF9300D000D01F92CDB7DEB79A833F
:1006600089837C836B834D8380916300883008F09D
:1006700055C080916300282F30E0C901880F991F71
:10068000880F991F880F991F821B930B8C599F4FBE
:1006900029813A81FC013183208380916300282FD6
:1006A00030E0C901880F991F880F991F880F991F83
:1006B000821B930B8A599F4F2B813C81FC01318314
:1006C000208380916300282F30E0C901880F991F93
:1006D000880F991F880F991F821B930B86599F4F74
:1006E0002D81FC01208380916300282F30E0C90117
:1006F000880F991F880F991F880F991F821B930BD2
:1007000088599F4F2B813C81FC013183208380914C
:1007100063008F5F8093630081E001C080E00F90F1
:100720000F900F900F900F90DF91CF910895CF937E
:10073000DF931F92CDB7DEB7198219826EC089810F
:10074000282F30E0C901880F991F880F991F880F43
:10075000991F821B930B88599F4FFC0180819181C7
:10076000892BB1F58981282F30E0C901880F991FA5
:10077000880F991F880F991F821B930B8C599F4FCD
:10078000FC0180819181FC0109958981282F30E04D
:100790008981482F50E0CA01880F991F880F991F3F
:1007A000880F991F841B950B8A599F4FFC0140812C
:1007B0005181C901880F991F880F991F880F991FB0
:1007C000821B930B88599F4FFC015183408322C0A9
:1007D0008981282F30E0C901880F991F880F991F40
:1007E000880F991F821B930B88599F4FFC018081B2
:1007F0009181AC0141505109C901880F991F880F9F
:10080000991F880F991F821B930B88599F4FFC01DA
:100810005183408389818F5F8983809163009981AF
:10082000981708F48CCF00000F90DF91CF910895B6
:10083000CF93DF93CDB7DEB729970FB6F894DEBF1D
:100840000FBECDBF19821A82198297C01A827FC04B
:100850008A81282F30E0C901880F991F880F991FBE
:10086000880F991F821B930B86599F4FFC01408173
:100870008A81882F90E09C012F5F3F4FC901880F2C
:10088000991F880F991F880F991F821B930B8659F8
:100890009F4FFC018081841708F056C08A81282F61
:1008A00030E0C901880F991F880F991F880F991F81
:1008B000821B930B8C599F4F27E0FC01DE0113969E
:1008C00001900D922A95E1F78A81482F50E08A81A4
:1008D000882F90E09C012F5F3F4FCA01880F991F1E
:1008E000880F991F880F991F841B950BAC014C59D9
:1008F0005F4FC901880F991F880F991F880F991F93
:10090000821B930B8C599F4F27E0FC01DA01019069
:100910000D922A95E1F78A81882F90E09C012F5F44
:100920003F4FC901880F991F880F991F880F991F82
:10093000821B930B8C599F4F27E0FE013396DC01FD
:1009400001900D922A95E1F78A818F5F8A838A81CF
:10095000282F30E080916300482F50E08981882F54
:1009600090E0BA01681B790BCB0101972817390772
:100970000CF46ECF89818F5F8983809163009981A8
:10098000981708F463CF000029960FB6F894DEBFDD
:100990000FBECDBFDF91CF910895CF93DF9300D0ED
:1009A0001F92CDB7DEB79B838A83198219821DC03F
:1009B0008981282F30E0C901880F991F880F991F5E
:1009C000880F991F821B930B8C599F4FFC0120812C
:1009D00031818A819B812817390721F4898180938D
:1009E000600008C089818F5F89838091630099814D
:1009F0009817F0F2809160008F3FB1F18091600014
:100A0000898328C08981282F30E08981882F90E050
:100A1000AC014F5F5F4FCA01880F991F880F991F64
:100A2000880F991F841B950B8C599F4FFC014081A7
:100A30005181C901880F991F880F991F880F991F2D
:100A4000821B930B8C599F4FFC01518340838981FA
:100A50008F5F8983809163009981981798F28091C4
:100A6000630081508093630000000F900F900F90FF
:100A7000DF91CF910895CF93DF93CDB7DEB761E0DB
:100A80008CE00E948C0060E08DE00E948C0060E0B1
:100A90008EE00E948C000000DF91CF910895CF93EB
:100AA000DF93CDB7DEB761E08DE00E948C0060E09F
:100AB0008EE00E948C0060E08CE00E948C000000C0
:100AC000DF91CF910895CF93DF93CDB7DEB761E08B
:100AD0008EE00E948C0060E08DE00E948C0060E05F
:100AE0008CE00E948C000000DF91CF910895CF939D
:100AF000DF93CDB7DEB78AE00E947401882321F02E
:100B000083E695E00E94CD040000DF91CF91089527
:100B10001F920F9200905F000F9211242F933F932A
:100B20004F935F936F937F938F939F93AF93BF93F5
:100B3000EF93FF93CF93DF93CDB7DEB780919C0007
:100B400090919D00FC0109950000DF91CF91FF91EC
:100B5000EF91BF91AF919F918F917F916F915F9135
:100B60004F913F912F910F9000925F000F901F9037
:100B70001895CF93DF93CDB7DEB78FE590E02FE5E3
:100B800030E0F90120812068FC0120838CE590E0B1
:100B90002CE7FC01208389E590E029E530E0F901AC
:100BA00020812260FC01208383E590E023E530E092
:100BB000F90120812860FC01208383E590E023E592
:100BC00030E0F90120812260FC01208383E590E080
:100BD00023E530E0F90120812160FC0120838FE5CD
:100BE00090E02FE530E0F90120812068FC012083AE
:100BF0000000DF91CF910895CF93DF9300D0CDB760
:100C0000DEB79A83898389819A8190939D0080932E
:100C10009C0000000F900F90DF91CF910895F89401
:020C2000FFCF04
:020C2200FF00D1
:00000001FF
