S01D0000554152542D50524F4A4543545F574954485F4C43442E73726563BA
S11300000C942A000C943C000C943C000C943C008E
S11300100C943C000C943C000C943C000C943C006C
S11300200C943C000C943C000C943C000C943C005C
S11300300C943C000C943C000C943C000C943C004C
S11300400C943C000C943C000C943C000C943C003C
S11300500C943C0011241FBECFE5D8E0DEBFCDBF19
S113006020E0A0E6B0E001C01D92A636B207E1F799
S11300700E943E000C940D020C940000CF93DF9379
S1130080CDB7DEB70E94480083E60E94E801FCCFAA
S1130090CF93DF93CDB7DEB789E290E02091600083
S11300A030916100FC01208388E08093640081E04A
S11300B080936200109265001092630087E690E0DE
S11300C0909361008093600080E490E0FC011082D2
S11300D089E290E02091600030916100FC0120836E
S11300E080916200813099F480E490E020E430E073
S11300F0F90120812068FC01208380E490E020E461
S113010030E0F9012081277FFC01208312C080E4C4
S113011090E020E430E0F90120812068FC01208394
S113012080E490E020E430E0F90120812860FC01C3
S1130130208380916300882F90E08130910581F0C5
S11301408230910549F1892B09F042C080E490E0A6
S113015020E430E0F90120812068FC01208338C0CC
S113016080E490E020E430E0F90120812068FC0183
S1130170208380E490E020E430E0F90120812F7EA8
S1130180FC01208380E490E020E430E0F901208148
S11301902062FC0120831CC080E490E020E430E075
S11301A0F90120812068FC01208380E490E020E4B0
S11301B030E0F90120812F7DFC01208380E490E070
S11301C020E430E0F90120812061FC01208300005B
S11301D080916500882351F48BE290E02BE230E0BB
S11301E0F90120812D7FFC01208309C08BE290E07E
S11301F02BE230E0F90120812260FC012083809110
S11302006400882F90E08730910509F45BC0883042
S1130210910534F48530910559F0069771F1A6C023
S11302208830910509F473C0099709F47AC09EC017
S113023080E490E020E430E0F90120812068FC01B2
S1130240208380E490E020E430E0F90120812B7FDA
S1130250FC01208380E490E020E430E0F901208177
S11302602D7FFC0120838AE290E02AE230E0F9014C
S113027020812B7FFC0120839EC080E490E020E459
S113028030E0F90120812068FC01208380E490E0C3
S113029020E430E0F90120812B7FFC01208380E4FD
S11302A090E020E430E0F90120812260FC01208309
S11302B08AE290E02AE230E0F90120812B7FFC0100
S11302C0208379C080E490E020E430E0F9012081CB
S11302D02068FC01208380E490E020E430E0F90110
S11302E020812460FC01208380E490E020E430E05D
S11302F0F90120812D7FFC0120838AE290E02AE22B
S113030030E0F90120812B7FFC01208354C080E47C
S113031090E020E430E0F90120812668FC0120838C
S11303204AC080E490E020E430E0F90120812068B4
S1130330FC01208380E490E020E430E0F901208196
S11303402460FC01208380E490E020E430E0F901A3
S113035020812260FC0120838AE290E02AE230E0DE
S1130360F90120812460FC01208325C080E490E011
S113037020E430E0F90120812068FC01208380E43E
S113038090E020E430E0F90120812460FC01208326
S113039080E490E020E430E0F90120812260FC0157
S11303A020838AE290E02AE230E0F90120812B7F69
S11303B0FC01208300008AE290E02AE230E0F901A7
S11303C020812861FC0120830000DF91CF910895F2
S11303D0CF93DF931F92CDB7DEB7898300008BE202
S11303E090E0FC018081882F90E080729927959598
S11303F087959595879595958795959587959595E1
S11304008795892B61F38CE290E02981FC0120839C
S111041000000F90DF91CF910895F894FFCF74
S9030000FC
