S00D0000694E5445522E7372656375
S11300000C942A000C943C000C943C000C94F202D6
S11300100C943C000C943C000C943C000C943C006C
S11300200C943C000C943C000C94B1020C943C00E5
S11300300C943C000C943C000C943C000C943C004C
S11300400C943C000C943C000C943C000C943C003C
S11300500C943C0011241FBECFE5D8E0DEBFCDBF19
S113006020E0A0E6B0E001C01D92A336B207E1F79C
S11300700E940E020C9421030C940000CF93DF9392
S113008000D0CDB7DEB789836A8389818830B0F127
S11300908981803198F58A818823C1F088E390E0D2
S11300A028E330E0F9012081622F2981222F30E0FA
S11300B0A9014850510921E030E002C0220F331F4A
S11300C04A95E2F7262BFC01208318C088E390E0D0
S11300D028E330E0F9012081622F2981222F30E0CA
S11300E0A9014850510921E030E002C0220F331F1A
S11300F04A95E2F720952623FC01208389818930E3
S113010068F58A818823A9F08BE390E02BE330E043
S1130110F9012081622F2981422F50E021E030E053
S113012002C0220F331F4A95E2F7262BFC012083DD
S113013015C08BE390E02BE330E0F9012081622FBE
S11301402981422F50E021E030E002C0220F331F0A
S11301504A95E2F720952623FC012083898180318A
S1130160B0F18981883198F58A818823C1F085E3CB
S113017090E025E330E0F9012081622F2981222FCC
S113018030E0A9014051510921E030E002C0220FC2
S1130190331F4A95E2F7262BFC01208318C085E320
S11301A090E025E330E0F9012081622F2981222F9C
S11301B030E0A9014051510921E030E002C0220F92
S11301C0331F4A95E2F720952623FC012083898179
S11301D08831B0F18981803298F58A818130C1F407
S11301E082E390E022E330E0F9012081622F29814B
S11301F0222F30E0A9014851510921E030E002C02A
S1130200220F331F4A95E2F7262BFC01208318C0E6
S113021082E390E022E330E0F9012081622F29811A
S1130220222F30E0A9014851510921E030E002C0F9
S1130230220F331F4A95E2F720952623FC012083E1
S113024000000F900F90DF91CF910895CF93DF932B
S113025000D0CDB7DEB789836A8389818830B0F155
S11302608981803198F58A818823C1F087E390E001
S113027027E330E0F9012081622F2981222F30E029
S1130280A9014850510921E030E002C0220F331F78
S11302904A95E2F7262BFC01208318C087E390E0FF
S11302A027E330E0F9012081622F2981222F30E0F9
S11302B0A9014850510921E030E002C0220F331F48
S11302C04A95E2F720952623FC0120838981893011
S11302D068F58A818823A9F08AE390E02AE330E074
S11302E0F9012081622F2981422F50E021E030E082
S11302F002C0220F331F4A95E2F7262BFC0120830C
S113030015C08AE390E02AE330E0F9012081622FEE
S11303102981422F50E021E030E002C0220F331F38
S11303204A95E2F720952623FC01208389818031B8
S1130330B0F18981883198F58A818823C1F084E3FA
S113034090E024E330E0F9012081622F2981222FFB
S113035030E0A9014051510921E030E002C0220FF0
S1130360331F4A95E2F7262BFC01208318C084E34F
S113037090E024E330E0F9012081622F2981222FCB
S113038030E0A9014051510921E030E002C0220FC0
S1130390331F4A95E2F720952623FC0120838981A7
S11303A08831B0F18981803298F58A818130C1F435
S11303B081E390E021E330E0F9012081622F29817B
S11303C0222F30E0A9014851510921E030E002C058
S11303D0220F331F4A95E2F7262BFC01208318C015
S11303E081E390E021E330E0F9012081622F29814B
S11303F0222F30E0A9014851510921E030E002C028
S1130400220F331F4A95E2F720952623FC0120830F
S113041000000F900F90DF91CF910895CF93DF9359
S1130420CDB7DEB761E08FE00E94260161E08DE088
S11304300E94260161E08EE00E94260161E08AE0CC
S11304400E9426010E94740280916000813069F448
S113045060E08DE00E943E0061E08FE00E943E007B
S113046060E08EE00E943E00EFCF80916000823019
S113047069F460E08FE00E943E0061E08DE00E943C
S11304803E0060E08EE00E943E00DECF809160007E
S1130490833069F460E08FE00E943E0060E08DE00C
S11304A00E943E0061E08EE00E943E00CDCF80912C
S11304B06000853069F461E08FE00E943E0061E0F5
S11304C08DE00E943E0061E08EE00E943E00BCCFC1
S11304D0109260008FE590E02FE530E0F901208173
S11304E02068FC012083B0CFCF93DF93CDB7DEB774
S11304F088E390E0FC01108261E08AE00E9426011A
S113050082E590E0FC0110828CE590E02CE7FC0190
S1130510208383E590E023E530E0F90120812B601E
S1130520FC01208389E590E029E530E0F901208190
S11305302260FC0120838BE590E02BE530E0F9019B
S113054020812062FC01208384E590E024E530E0F2
S1130550F90120812064FC0120830000DF91CF9108
S113056008951F920F9200905F000F9211242F9311
S11305703F938F939F93EF93FF93CF93DF93CDB7E5
S1130580DEB78091610090916200019690936200C1
S1130590809361008091610090916200883E934055
S11305A048F01092620010926100809160008F5FA9
S11305B0809360008FE590E02FE530E0F901208121
S11305C02068FC0120830000DF91CF91FF91EF911F
S11305D09F918F913F912F910F9000925F000F9008
S11305E01F9018951F920F9200905F000F92112494
S11305F02F933F938F939F93EF93FF93CF93DF9327
S1130600CDB7DEB785E0809360001092620010924F
S113061061008FE590E02FE530E0F901208120684A
S1130620FC0120830000DF91CF91FF91EF919F9116
S11306308F913F912F910F9000925F000F901F9028
S10906401895F894FFCFA9
S9030000FC
